{
  "_format": "hh-sol-artifact-1",
  "contractName": "NonFunToken",
  "sourceName": "contracts/NonFunToken.sol",
  "abi": [
    {
      "inputs": [],
      "stateMutability": "nonpayable",
      "type": "constructor"
    },
    {
      "anonymous": false,
      "inputs": [
        {
          "indexed": true,
          "internalType": "address",
          "name": "owner",
          "type": "address"
        },
        {
          "indexed": true,
          "internalType": "address",
          "name": "approved",
          "type": "address"
        },
        {
          "indexed": true,
          "internalType": "uint256",
          "name": "tokenId",
          "type": "uint256"
        }
      ],
      "name": "Approval",
      "type": "event"
    },
    {
      "anonymous": false,
      "inputs": [
        {
          "indexed": true,
          "internalType": "address",
          "name": "owner",
          "type": "address"
        },
        {
          "indexed": true,
          "internalType": "address",
          "name": "operator",
          "type": "address"
        },
        {
          "indexed": false,
          "internalType": "bool",
          "name": "approved",
          "type": "bool"
        }
      ],
      "name": "ApprovalForAll",
      "type": "event"
    },
    {
      "anonymous": false,
      "inputs": [
        {
          "indexed": true,
          "internalType": "address",
          "name": "previousOwner",
          "type": "address"
        },
        {
          "indexed": true,
          "internalType": "address",
          "name": "newOwner",
          "type": "address"
        }
      ],
      "name": "OwnershipTransferred",
      "type": "event"
    },
    {
      "anonymous": false,
      "inputs": [
        {
          "indexed": true,
          "internalType": "address",
          "name": "from",
          "type": "address"
        },
        {
          "indexed": true,
          "internalType": "address",
          "name": "to",
          "type": "address"
        },
        {
          "indexed": true,
          "internalType": "uint256",
          "name": "tokenId",
          "type": "uint256"
        }
      ],
      "name": "Transfer",
      "type": "event"
    },
    {
      "inputs": [
        {
          "internalType": "address",
          "name": "to",
          "type": "address"
        },
        {
          "internalType": "uint256",
          "name": "tokenId",
          "type": "uint256"
        }
      ],
      "name": "approve",
      "outputs": [],
      "stateMutability": "nonpayable",
      "type": "function"
    },
    {
      "inputs": [
        {
          "internalType": "address",
          "name": "owner",
          "type": "address"
        }
      ],
      "name": "balanceOf",
      "outputs": [
        {
          "internalType": "uint256",
          "name": "",
          "type": "uint256"
        }
      ],
      "stateMutability": "view",
      "type": "function"
    },
    {
      "inputs": [
        {
          "internalType": "uint256",
          "name": "tokenId",
          "type": "uint256"
        }
      ],
      "name": "getApproved",
      "outputs": [
        {
          "internalType": "address",
          "name": "",
          "type": "address"
        }
      ],
      "stateMutability": "view",
      "type": "function"
    },
    {
      "inputs": [],
      "name": "getAuthority",
      "outputs": [
        {
          "internalType": "address",
          "name": "",
          "type": "address"
        }
      ],
      "stateMutability": "view",
      "type": "function"
    },
    {
      "inputs": [
        {
          "internalType": "address",
          "name": "owner",
          "type": "address"
        },
        {
          "internalType": "address",
          "name": "operator",
          "type": "address"
        }
      ],
      "name": "isApprovedForAll",
      "outputs": [
        {
          "internalType": "bool",
          "name": "",
          "type": "bool"
        }
      ],
      "stateMutability": "view",
      "type": "function"
    },
    {
      "inputs": [
        {
          "internalType": "address",
          "name": "collector",
          "type": "address"
        },
        {
          "internalType": "uint256",
          "name": "tokenId",
          "type": "uint256"
        },
        {
          "internalType": "string",
          "name": "_tokenURI",
          "type": "string"
        }
      ],
      "name": "mintNFT",
      "outputs": [],
      "stateMutability": "nonpayable",
      "type": "function"
    },
    {
      "inputs": [],
      "name": "name",
      "outputs": [
        {
          "internalType": "string",
          "name": "",
          "type": "string"
        }
      ],
      "stateMutability": "view",
      "type": "function"
    },
    {
      "inputs": [],
      "name": "owner",
      "outputs": [
        {
          "internalType": "address",
          "name": "",
          "type": "address"
        }
      ],
      "stateMutability": "view",
      "type": "function"
    },
    {
      "inputs": [
        {
          "internalType": "uint256",
          "name": "tokenId",
          "type": "uint256"
        }
      ],
      "name": "ownerOf",
      "outputs": [
        {
          "internalType": "address",
          "name": "",
          "type": "address"
        }
      ],
      "stateMutability": "view",
      "type": "function"
    },
    {
      "inputs": [],
      "name": "renounceOwnership",
      "outputs": [],
      "stateMutability": "nonpayable",
      "type": "function"
    },
    {
      "inputs": [
        {
          "internalType": "address",
          "name": "from",
          "type": "address"
        },
        {
          "internalType": "address",
          "name": "to",
          "type": "address"
        },
        {
          "internalType": "uint256",
          "name": "tokenId",
          "type": "uint256"
        }
      ],
      "name": "safeTransferFrom",
      "outputs": [],
      "stateMutability": "nonpayable",
      "type": "function"
    },
    {
      "inputs": [
        {
          "internalType": "address",
          "name": "from",
          "type": "address"
        },
        {
          "internalType": "address",
          "name": "to",
          "type": "address"
        },
        {
          "internalType": "uint256",
          "name": "tokenId",
          "type": "uint256"
        },
        {
          "internalType": "bytes",
          "name": "data",
          "type": "bytes"
        }
      ],
      "name": "safeTransferFrom",
      "outputs": [],
      "stateMutability": "nonpayable",
      "type": "function"
    },
    {
      "inputs": [
        {
          "internalType": "address",
          "name": "operator",
          "type": "address"
        },
        {
          "internalType": "bool",
          "name": "approved",
          "type": "bool"
        }
      ],
      "name": "setApprovalForAll",
      "outputs": [],
      "stateMutability": "nonpayable",
      "type": "function"
    },
    {
      "inputs": [
        {
          "internalType": "address",
          "name": "_authority",
          "type": "address"
        }
      ],
      "name": "setAuthority",
      "outputs": [],
      "stateMutability": "nonpayable",
      "type": "function"
    },
    {
      "inputs": [
        {
          "internalType": "bytes4",
          "name": "interfaceId",
          "type": "bytes4"
        }
      ],
      "name": "supportsInterface",
      "outputs": [
        {
          "internalType": "bool",
          "name": "",
          "type": "bool"
        }
      ],
      "stateMutability": "view",
      "type": "function"
    },
    {
      "inputs": [],
      "name": "symbol",
      "outputs": [
        {
          "internalType": "string",
          "name": "",
          "type": "string"
        }
      ],
      "stateMutability": "view",
      "type": "function"
    },
    {
      "inputs": [
        {
          "internalType": "uint256",
          "name": "tokenId",
          "type": "uint256"
        }
      ],
      "name": "tokenURI",
      "outputs": [
        {
          "internalType": "string",
          "name": "",
          "type": "string"
        }
      ],
      "stateMutability": "view",
      "type": "function"
    },
    {
      "inputs": [
        {
          "internalType": "address",
          "name": "from",
          "type": "address"
        },
        {
          "internalType": "address",
          "name": "to",
          "type": "address"
        },
        {
          "internalType": "uint256",
          "name": "tokenId",
          "type": "uint256"
        }
      ],
      "name": "transferFrom",
      "outputs": [],
      "stateMutability": "nonpayable",
      "type": "function"
    },
    {
      "inputs": [
        {
          "internalType": "address",
          "name": "newOwner",
          "type": "address"
        }
      ],
      "name": "transferOwnership",
      "outputs": [],
      "stateMutability": "nonpayable",
      "type": "function"
    }
  ],
  "bytecode": "0x60806040523480156200001157600080fd5b506040518060400160405280600b81526020017f4e6f6e46756e546f6b656e0000000000000000000000000000000000000000008152506040518060400160405280600681526020017f4e4f4e46554e000000000000000000000000000000000000000000000000000081525081600090816200008f919062000412565b508060019081620000a1919062000412565b505050620000c4620000b8620000ca60201b60201c565b620000d260201b60201c565b620004f9565b600033905090565b6000600660009054906101000a900473ffffffffffffffffffffffffffffffffffffffff16905081600660006101000a81548173ffffffffffffffffffffffffffffffffffffffff021916908373ffffffffffffffffffffffffffffffffffffffff1602179055508173ffffffffffffffffffffffffffffffffffffffff168173ffffffffffffffffffffffffffffffffffffffff167f8be0079c531659141344cd1fd0a4f28419497f9722a3daafe3b4186f6b6457e060405160405180910390a35050565b600081519050919050565b7f4e487b7100000000000000000000000000000000000000000000000000000000600052604160045260246000fd5b7f4e487b7100000000000000000000000000000000000000000000000000000000600052602260045260246000fd5b600060028204905060018216806200021a57607f821691505b60208210810362000230576200022f620001d2565b5b50919050565b60008190508160005260206000209050919050565b60006020601f8301049050919050565b600082821b905092915050565b6000600883026200029a7fffffffffffffffffffffffffffffffffffffffffffffffffffffffffffffffff826200025b565b620002a686836200025b565b95508019841693508086168417925050509392505050565b6000819050919050565b6000819050919050565b6000620002f3620002ed620002e784620002be565b620002c8565b620002be565b9050919050565b6000819050919050565b6200030f83620002d2565b620003276200031e82620002fa565b84845462000268565b825550505050565b600090565b6200033e6200032f565b6200034b81848462000304565b505050565b5b8181101562000373576200036760008262000334565b60018101905062000351565b5050565b601f821115620003c2576200038c8162000236565b62000397846200024b565b81016020851015620003a7578190505b620003bf620003b6856200024b565b83018262000350565b50505b505050565b600082821c905092915050565b6000620003e760001984600802620003c7565b1980831691505092915050565b6000620004028383620003d4565b9150826002028217905092915050565b6200041d8262000198565b67ffffffffffffffff811115620004395762000438620001a3565b5b62000445825462000201565b6200045282828562000377565b600060209050601f8311600181146200048a576000841562000475578287015190505b620004818582620003f4565b865550620004f1565b601f1984166200049a8662000236565b60005b82811015620004c4578489015182556001820191506020850194506020810190506200049d565b86831015620004e45784890151620004e0601f891682620003d4565b8355505b6001600288020188555050505b505050505050565b612c2f80620005096000396000f3fe608060405234801561001057600080fd5b50600436106101215760003560e01c8063715018a6116100ad578063b88d4fde11610071578063b88d4fde146102f2578063c87b56dd1461030e578063e2b178a01461033e578063e985e9c51461035c578063f2fde38b1461038c57610121565b8063715018a6146102745780637a9e5e4b1461027e5780638da5cb5b1461029a57806395d89b41146102b8578063a22cb465146102d657610121565b80631e576912116100f45780631e576912146101c057806323b872dd146101dc57806342842e0e146101f85780636352211e1461021457806370a082311461024457610121565b806301ffc9a71461012657806306fdde0314610156578063081812fc14610174578063095ea7b3146101a4575b600080fd5b610140600480360381019061013b9190611994565b6103a8565b60405161014d91906119dc565b60405180910390f35b61015e61048a565b60405161016b9190611a87565b60405180910390f35b61018e60048036038101906101899190611adf565b61051c565b60405161019b9190611b4d565b60405180910390f35b6101be60048036038101906101b99190611b94565b610562565b005b6101da60048036038101906101d59190611d09565b610679565b005b6101f660048036038101906101f19190611d78565b610776565b005b610212600480360381019061020d9190611d78565b6107d6565b005b61022e60048036038101906102299190611adf565b6107f6565b60405161023b9190611b4d565b60405180910390f35b61025e60048036038101906102599190611dcb565b61087c565b60405161026b9190611e07565b60405180910390f35b61027c610933565b005b61029860048036038101906102939190611dcb565b610947565b005b6102a2610993565b6040516102af9190611b4d565b60405180910390f35b6102c06109bd565b6040516102cd9190611a87565b60405180910390f35b6102f060048036038101906102eb9190611e4e565b610a4f565b005b61030c60048036038101906103079190611f2f565b610a65565b005b61032860048036038101906103239190611adf565b610ac7565b6040516103359190611a87565b60405180910390f35b610346610b0d565b6040516103539190611b4d565b60405180910390f35b61037660048036038101906103719190611fb2565b610b37565b60405161038391906119dc565b60405180910390f35b6103a660048036038101906103a19190611dcb565b610bcb565b005b60007f80ac58cd000000000000000000000000000000000000000000000000000000007bffffffffffffffffffffffffffffffffffffffffffffffffffffffff1916827bffffffffffffffffffffffffffffffffffffffffffffffffffffffff1916148061047357507f5b5e139f000000000000000000000000000000000000000000000000000000007bffffffffffffffffffffffffffffffffffffffffffffffffffffffff1916827bffffffffffffffffffffffffffffffffffffffffffffffffffffffff1916145b80610483575061048282610c4e565b5b9050919050565b60606000805461049990612021565b80601f01602080910402602001604051908101604052809291908181526020018280546104c590612021565b80156105125780601f106104e757610100808354040283529160200191610512565b820191906000526020600020905b8154815290600101906020018083116104f557829003601f168201915b5050505050905090565b600061052782610cb8565b6004600083815260200190815260200160002060009054906101000a900473ffffffffffffffffffffffffffffffffffffffff169050919050565b600061056d826107f6565b90508073ffffffffffffffffffffffffffffffffffffffff168373ffffffffffffffffffffffffffffffffffffffff16036105dd576040517f08c379a00000000000000000000000000000000000000000000000000000000081526004016105d4906120c4565b60405180910390fd5b8073ffffffffffffffffffffffffffffffffffffffff166105fc610d03565b73ffffffffffffffffffffffffffffffffffffffff16148061062b575061062a81610625610d03565b610b37565b5b61066a576040517f08c379a000000000000000000000000000000000000000000000000000000000815260040161066190612156565b60405180910390fd5b6106748383610d0b565b505050565b3373ffffffffffffffffffffffffffffffffffffffff16600760009054906101000a900473ffffffffffffffffffffffffffffffffffffffff1673ffffffffffffffffffffffffffffffffffffffff16148061070757503373ffffffffffffffffffffffffffffffffffffffff166106ef610993565b73ffffffffffffffffffffffffffffffffffffffff16145b610746576040517f08c379a000000000000000000000000000000000000000000000000000000000815260040161073d906121c2565b60405180910390fd5b6107508383610dc4565b80600860008481526020019081526020016000209081610770919061238e565b50505050565b610787610781610d03565b82610de2565b6107c6576040517f08c379a00000000000000000000000000000000000000000000000000000000081526004016107bd906124d2565b60405180910390fd5b6107d1838383610e77565b505050565b6107f183838360405180602001604052806000815250610a65565b505050565b60008061080283611170565b9050600073ffffffffffffffffffffffffffffffffffffffff168173ffffffffffffffffffffffffffffffffffffffff1603610873576040517f08c379a000000000000000000000000000000000000000000000000000000000815260040161086a9061253e565b60405180910390fd5b80915050919050565b60008073ffffffffffffffffffffffffffffffffffffffff168273ffffffffffffffffffffffffffffffffffffffff16036108ec576040517f08c379a00000000000000000000000000000000000000000000000000000000081526004016108e3906125d0565b60405180910390fd5b600360008373ffffffffffffffffffffffffffffffffffffffff1673ffffffffffffffffffffffffffffffffffffffff168152602001908152602001600020549050919050565b61093b6111ad565b610945600061122b565b565b61094f6111ad565b80600760006101000a81548173ffffffffffffffffffffffffffffffffffffffff021916908373ffffffffffffffffffffffffffffffffffffffff16021790555050565b6000600660009054906101000a900473ffffffffffffffffffffffffffffffffffffffff16905090565b6060600180546109cc90612021565b80601f01602080910402602001604051908101604052809291908181526020018280546109f890612021565b8015610a455780601f10610a1a57610100808354040283529160200191610a45565b820191906000526020600020905b815481529060010190602001808311610a2857829003601f168201915b5050505050905090565b610a61610a5a610d03565b83836112f1565b5050565b610a76610a70610d03565b83610de2565b610ab5576040517f08c379a0000000000000000000000000000000000000000000000000000000008152600401610aac906124d2565b60405180910390fd5b610ac18484848461145d565b50505050565b6060610ad282610cb8565b6008600083815260200190815260200160002082604051602001610af79291906126eb565b6040516020818303038152906040529050919050565b6000600760009054906101000a900473ffffffffffffffffffffffffffffffffffffffff16905090565b6000600560008473ffffffffffffffffffffffffffffffffffffffff1673ffffffffffffffffffffffffffffffffffffffff16815260200190815260200160002060008373ffffffffffffffffffffffffffffffffffffffff1673ffffffffffffffffffffffffffffffffffffffff16815260200190815260200160002060009054906101000a900460ff16905092915050565b610bd36111ad565b600073ffffffffffffffffffffffffffffffffffffffff168173ffffffffffffffffffffffffffffffffffffffff1603610c42576040517f08c379a0000000000000000000000000000000000000000000000000000000008152600401610c3990612790565b60405180910390fd5b610c4b8161122b565b50565b60007f01ffc9a7000000000000000000000000000000000000000000000000000000007bffffffffffffffffffffffffffffffffffffffffffffffffffffffff1916827bffffffffffffffffffffffffffffffffffffffffffffffffffffffff1916149050919050565b610cc1816114b9565b610d00576040517f08c379a0000000000000000000000000000000000000000000000000000000008152600401610cf79061253e565b60405180910390fd5b50565b600033905090565b816004600083815260200190815260200160002060006101000a81548173ffffffffffffffffffffffffffffffffffffffff021916908373ffffffffffffffffffffffffffffffffffffffff160217905550808273ffffffffffffffffffffffffffffffffffffffff16610d7e836107f6565b73ffffffffffffffffffffffffffffffffffffffff167f8c5be1e5ebec7d5bd14f71427d1e84f3dd0314c0f7b2291e5b200ac8c7c3b92560405160405180910390a45050565b610dde8282604051806020016040528060008152506114fa565b5050565b600080610dee836107f6565b90508073ffffffffffffffffffffffffffffffffffffffff168473ffffffffffffffffffffffffffffffffffffffff161480610e305750610e2f8185610b37565b5b80610e6e57508373ffffffffffffffffffffffffffffffffffffffff16610e568461051c565b73ffffffffffffffffffffffffffffffffffffffff16145b91505092915050565b8273ffffffffffffffffffffffffffffffffffffffff16610e97826107f6565b73ffffffffffffffffffffffffffffffffffffffff1614610eed576040517f08c379a0000000000000000000000000000000000000000000000000000000008152600401610ee490612822565b60405180910390fd5b600073ffffffffffffffffffffffffffffffffffffffff168273ffffffffffffffffffffffffffffffffffffffff1603610f5c576040517f08c379a0000000000000000000000000000000000000000000000000000000008152600401610f53906128b4565b60405180910390fd5b610f698383836001611555565b8273ffffffffffffffffffffffffffffffffffffffff16610f89826107f6565b73ffffffffffffffffffffffffffffffffffffffff1614610fdf576040517f08c379a0000000000000000000000000000000000000000000000000000000008152600401610fd690612822565b60405180910390fd5b6004600082815260200190815260200160002060006101000a81549073ffffffffffffffffffffffffffffffffffffffff02191690556001600360008573ffffffffffffffffffffffffffffffffffffffff1673ffffffffffffffffffffffffffffffffffffffff168152602001908152602001600020600082825403925050819055506001600360008473ffffffffffffffffffffffffffffffffffffffff1673ffffffffffffffffffffffffffffffffffffffff16815260200190815260200160002060008282540192505081905550816002600083815260200190815260200160002060006101000a81548173ffffffffffffffffffffffffffffffffffffffff021916908373ffffffffffffffffffffffffffffffffffffffff160217905550808273ffffffffffffffffffffffffffffffffffffffff168473ffffffffffffffffffffffffffffffffffffffff167fddf252ad1be2c89b69c2b068fc378daa952ba7f163c4a11628f55a4df523b3ef60405160405180910390a461116b838383600161155b565b505050565b60006002600083815260200190815260200160002060009054906101000a900473ffffffffffffffffffffffffffffffffffffffff169050919050565b6111b5610d03565b73ffffffffffffffffffffffffffffffffffffffff166111d3610993565b73ffffffffffffffffffffffffffffffffffffffff1614611229576040517f08c379a000000000000000000000000000000000000000000000000000000000815260040161122090612920565b60405180910390fd5b565b6000600660009054906101000a900473ffffffffffffffffffffffffffffffffffffffff16905081600660006101000a81548173ffffffffffffffffffffffffffffffffffffffff021916908373ffffffffffffffffffffffffffffffffffffffff1602179055508173ffffffffffffffffffffffffffffffffffffffff168173ffffffffffffffffffffffffffffffffffffffff167f8be0079c531659141344cd1fd0a4f28419497f9722a3daafe3b4186f6b6457e060405160405180910390a35050565b8173ffffffffffffffffffffffffffffffffffffffff168373ffffffffffffffffffffffffffffffffffffffff160361135f576040517f08c379a00000000000000000000000000000000000000000000000000000000081526004016113569061298c565b60405180910390fd5b80600560008573ffffffffffffffffffffffffffffffffffffffff1673ffffffffffffffffffffffffffffffffffffffff16815260200190815260200160002060008473ffffffffffffffffffffffffffffffffffffffff1673ffffffffffffffffffffffffffffffffffffffff16815260200190815260200160002060006101000a81548160ff0219169083151502179055508173ffffffffffffffffffffffffffffffffffffffff168373ffffffffffffffffffffffffffffffffffffffff167f17307eab39ab6107e8899845ad3d59bd9653f200f220920489ca2b5937696c318360405161145091906119dc565b60405180910390a3505050565b611468848484610e77565b61147484848484611561565b6114b3576040517f08c379a00000000000000000000000000000000000000000000000000000000081526004016114aa90612a1e565b60405180910390fd5b50505050565b60008073ffffffffffffffffffffffffffffffffffffffff166114db83611170565b73ffffffffffffffffffffffffffffffffffffffff1614159050919050565b61150483836116e8565b6115116000848484611561565b611550576040517f08c379a000000000000000000000000000000000000000000000000000000000815260040161154790612a1e565b60405180910390fd5b505050565b50505050565b50505050565b60006115828473ffffffffffffffffffffffffffffffffffffffff16611905565b156116db578373ffffffffffffffffffffffffffffffffffffffff1663150b7a026115ab610d03565b8786866040518563ffffffff1660e01b81526004016115cd9493929190612a93565b6020604051808303816000875af192505050801561160957506040513d601f19601f820116820180604052508101906116069190612af4565b60015b61168b573d8060008114611639576040519150601f19603f3d011682016040523d82523d6000602084013e61163e565b606091505b506000815103611683576040517f08c379a000000000000000000000000000000000000000000000000000000000815260040161167a90612a1e565b60405180910390fd5b805181602001fd5b63150b7a0260e01b7bffffffffffffffffffffffffffffffffffffffffffffffffffffffff1916817bffffffffffffffffffffffffffffffffffffffffffffffffffffffff1916149150506116e0565b600190505b949350505050565b600073ffffffffffffffffffffffffffffffffffffffff168273ffffffffffffffffffffffffffffffffffffffff1603611757576040517f08c379a000000000000000000000000000000000000000000000000000000000815260040161174e90612b6d565b60405180910390fd5b611760816114b9565b156117a0576040517f08c379a000000000000000000000000000000000000000000000000000000000815260040161179790612bd9565b60405180910390fd5b6117ae600083836001611555565b6117b7816114b9565b156117f7576040517f08c379a00000000000000000000000000000000000000000000000000000000081526004016117ee90612bd9565b60405180910390fd5b6001600360008473ffffffffffffffffffffffffffffffffffffffff1673ffffffffffffffffffffffffffffffffffffffff16815260200190815260200160002060008282540192505081905550816002600083815260200190815260200160002060006101000a81548173ffffffffffffffffffffffffffffffffffffffff021916908373ffffffffffffffffffffffffffffffffffffffff160217905550808273ffffffffffffffffffffffffffffffffffffffff16600073ffffffffffffffffffffffffffffffffffffffff167fddf252ad1be2c89b69c2b068fc378daa952ba7f163c4a11628f55a4df523b3ef60405160405180910390a461190160008383600161155b565b5050565b6000808273ffffffffffffffffffffffffffffffffffffffff163b119050919050565b6000604051905090565b600080fd5b600080fd5b60007fffffffff0000000000000000000000000000000000000000000000000000000082169050919050565b6119718161193c565b811461197c57600080fd5b50565b60008135905061198e81611968565b92915050565b6000602082840312156119aa576119a9611932565b5b60006119b88482850161197f565b91505092915050565b60008115159050919050565b6119d6816119c1565b82525050565b60006020820190506119f160008301846119cd565b92915050565b600081519050919050565b600082825260208201905092915050565b60005b83811015611a31578082015181840152602081019050611a16565b60008484015250505050565b6000601f19601f8301169050919050565b6000611a59826119f7565b611a638185611a02565b9350611a73818560208601611a13565b611a7c81611a3d565b840191505092915050565b60006020820190508181036000830152611aa18184611a4e565b905092915050565b6000819050919050565b611abc81611aa9565b8114611ac757600080fd5b50565b600081359050611ad981611ab3565b92915050565b600060208284031215611af557611af4611932565b5b6000611b0384828501611aca565b91505092915050565b600073ffffffffffffffffffffffffffffffffffffffff82169050919050565b6000611b3782611b0c565b9050919050565b611b4781611b2c565b82525050565b6000602082019050611b626000830184611b3e565b92915050565b611b7181611b2c565b8114611b7c57600080fd5b50565b600081359050611b8e81611b68565b92915050565b60008060408385031215611bab57611baa611932565b5b6000611bb985828601611b7f565b9250506020611bca85828601611aca565b9150509250929050565b600080fd5b600080fd5b7f4e487b7100000000000000000000000000000000000000000000000000000000600052604160045260246000fd5b611c1682611a3d565b810181811067ffffffffffffffff82111715611c3557611c34611bde565b5b80604052505050565b6000611c48611928565b9050611c548282611c0d565b919050565b600067ffffffffffffffff821115611c7457611c73611bde565b5b611c7d82611a3d565b9050602081019050919050565b82818337600083830152505050565b6000611cac611ca784611c59565b611c3e565b905082815260208101848484011115611cc857611cc7611bd9565b5b611cd3848285611c8a565b509392505050565b600082601f830112611cf057611cef611bd4565b5b8135611d00848260208601611c99565b91505092915050565b600080600060608486031215611d2257611d21611932565b5b6000611d3086828701611b7f565b9350506020611d4186828701611aca565b925050604084013567ffffffffffffffff811115611d6257611d61611937565b5b611d6e86828701611cdb565b9150509250925092565b600080600060608486031215611d9157611d90611932565b5b6000611d9f86828701611b7f565b9350506020611db086828701611b7f565b9250506040611dc186828701611aca565b9150509250925092565b600060208284031215611de157611de0611932565b5b6000611def84828501611b7f565b91505092915050565b611e0181611aa9565b82525050565b6000602082019050611e1c6000830184611df8565b92915050565b611e2b816119c1565b8114611e3657600080fd5b50565b600081359050611e4881611e22565b92915050565b60008060408385031215611e6557611e64611932565b5b6000611e7385828601611b7f565b9250506020611e8485828601611e39565b9150509250929050565b600067ffffffffffffffff821115611ea957611ea8611bde565b5b611eb282611a3d565b9050602081019050919050565b6000611ed2611ecd84611e8e565b611c3e565b905082815260208101848484011115611eee57611eed611bd9565b5b611ef9848285611c8a565b509392505050565b600082601f830112611f1657611f15611bd4565b5b8135611f26848260208601611ebf565b91505092915050565b60008060008060808587031215611f4957611f48611932565b5b6000611f5787828801611b7f565b9450506020611f6887828801611b7f565b9350506040611f7987828801611aca565b925050606085013567ffffffffffffffff811115611f9a57611f99611937565b5b611fa687828801611f01565b91505092959194509250565b60008060408385031215611fc957611fc8611932565b5b6000611fd785828601611b7f565b9250506020611fe885828601611b7f565b9150509250929050565b7f4e487b7100000000000000000000000000000000000000000000000000000000600052602260045260246000fd5b6000600282049050600182168061203957607f821691505b60208210810361204c5761204b611ff2565b5b50919050565b7f4552433732313a20617070726f76616c20746f2063757272656e74206f776e6560008201527f7200000000000000000000000000000000000000000000000000000000000000602082015250565b60006120ae602183611a02565b91506120b982612052565b604082019050919050565b600060208201905081810360008301526120dd816120a1565b9050919050565b7f4552433732313a20617070726f76652063616c6c6572206973206e6f7420746f60008201527f6b656e206f776e6572206f7220617070726f76656420666f7220616c6c000000602082015250565b6000612140603d83611a02565b915061214b826120e4565b604082019050919050565b6000602082019050818103600083015261216f81612133565b9050919050565b7f4f6e6c792074686520617574686f726974792063616e206d696e74204e465473600082015250565b60006121ac602083611a02565b91506121b782612176565b602082019050919050565b600060208201905081810360008301526121db8161219f565b9050919050565b60008190508160005260206000209050919050565b60006020601f8301049050919050565b600082821b905092915050565b6000600883026122447fffffffffffffffffffffffffffffffffffffffffffffffffffffffffffffffff82612207565b61224e8683612207565b95508019841693508086168417925050509392505050565b6000819050919050565b600061228b61228661228184611aa9565b612266565b611aa9565b9050919050565b6000819050919050565b6122a583612270565b6122b96122b182612292565b848454612214565b825550505050565b600090565b6122ce6122c1565b6122d981848461229c565b505050565b5b818110156122fd576122f26000826122c6565b6001810190506122df565b5050565b601f82111561234257612313816121e2565b61231c846121f7565b8101602085101561232b578190505b61233f612337856121f7565b8301826122de565b50505b505050565b600082821c905092915050565b600061236560001984600802612347565b1980831691505092915050565b600061237e8383612354565b9150826002028217905092915050565b612397826119f7565b67ffffffffffffffff8111156123b0576123af611bde565b5b6123ba8254612021565b6123c5828285612301565b600060209050601f8311600181146123f857600084156123e6578287015190505b6123f08582612372565b865550612458565b601f198416612406866121e2565b60005b8281101561242e57848901518255600182019150602085019450602081019050612409565b8683101561244b5784890151612447601f891682612354565b8355505b6001600288020188555050505b505050505050565b7f4552433732313a2063616c6c6572206973206e6f7420746f6b656e206f776e6560008201527f72206f7220617070726f76656400000000000000000000000000000000000000602082015250565b60006124bc602d83611a02565b91506124c782612460565b604082019050919050565b600060208201905081810360008301526124eb816124af565b9050919050565b7f4552433732313a20696e76616c696420746f6b656e2049440000000000000000600082015250565b6000612528601883611a02565b9150612533826124f2565b602082019050919050565b600060208201905081810360008301526125578161251b565b9050919050565b7f4552433732313a2061646472657373207a65726f206973206e6f74206120766160008201527f6c6964206f776e65720000000000000000000000000000000000000000000000602082015250565b60006125ba602983611a02565b91506125c58261255e565b604082019050919050565b600060208201905081810360008301526125e9816125ad565b9050919050565b600081905092915050565b6000815461260881612021565b61261281866125f0565b9450600182166000811461262d576001811461264257612675565b60ff1983168652811515820286019350612675565b61264b856121e2565b60005b8381101561266d5781548189015260018201915060208101905061264e565b838801955050505b50505092915050565b6000819050919050565b61269961269482611aa9565b61267e565b82525050565b7f2e6a736f6e000000000000000000000000000000000000000000000000000000600082015250565b60006126d56005836125f0565b91506126e08261269f565b600582019050919050565b60006126f782856125fb565b91506127038284612688565b602082019150612712826126c8565b91508190509392505050565b7f4f776e61626c653a206e6577206f776e657220697320746865207a65726f206160008201527f6464726573730000000000000000000000000000000000000000000000000000602082015250565b600061277a602683611a02565b91506127858261271e565b604082019050919050565b600060208201905081810360008301526127a98161276d565b9050919050565b7f4552433732313a207472616e736665722066726f6d20696e636f72726563742060008201527f6f776e6572000000000000000000000000000000000000000000000000000000602082015250565b600061280c602583611a02565b9150612817826127b0565b604082019050919050565b6000602082019050818103600083015261283b816127ff565b9050919050565b7f4552433732313a207472616e7366657220746f20746865207a65726f2061646460008201527f7265737300000000000000000000000000000000000000000000000000000000602082015250565b600061289e602483611a02565b91506128a982612842565b604082019050919050565b600060208201905081810360008301526128cd81612891565b9050919050565b7f4f776e61626c653a2063616c6c6572206973206e6f7420746865206f776e6572600082015250565b600061290a602083611a02565b9150612915826128d4565b602082019050919050565b60006020820190508181036000830152612939816128fd565b9050919050565b7f4552433732313a20617070726f766520746f2063616c6c657200000000000000600082015250565b6000612976601983611a02565b915061298182612940565b602082019050919050565b600060208201905081810360008301526129a581612969565b9050919050565b7f4552433732313a207472616e7366657220746f206e6f6e20455243373231526560008201527f63656976657220696d706c656d656e7465720000000000000000000000000000602082015250565b6000612a08603283611a02565b9150612a13826129ac565b604082019050919050565b60006020820190508181036000830152612a37816129fb565b9050919050565b600081519050919050565b600082825260208201905092915050565b6000612a6582612a3e565b612a6f8185612a49565b9350612a7f818560208601611a13565b612a8881611a3d565b840191505092915050565b6000608082019050612aa86000830187611b3e565b612ab56020830186611b3e565b612ac26040830185611df8565b8181036060830152612ad48184612a5a565b905095945050505050565b600081519050612aee81611968565b92915050565b600060208284031215612b0a57612b09611932565b5b6000612b1884828501612adf565b91505092915050565b7f4552433732313a206d696e7420746f20746865207a65726f2061646472657373600082015250565b6000612b57602083611a02565b9150612b6282612b21565b602082019050919050565b60006020820190508181036000830152612b8681612b4a565b9050919050565b7f4552433732313a20746f6b656e20616c7265616479206d696e74656400000000600082015250565b6000612bc3601c83611a02565b9150612bce82612b8d565b602082019050919050565b60006020820190508181036000830152612bf281612bb6565b905091905056fea2646970667358221220093d75c9fc745e56d46509976cd89a79ea9d43d0e62b90c0960b2680ee05583464736f6c63430008110033",
  "linkReferences": {},
  "deployedLinkReferences": {}
}