{
  "_format": "hh-sol-artifact-1",
  "contractName": "NonFunToken",
  "sourceName": "contracts/NonFunToken.sol",
  "abi": [
    {
      "inputs": [],
      "stateMutability": "nonpayable",
      "type": "constructor"
    },
    {
      "anonymous": false,
      "inputs": [
        {
          "indexed": true,
          "internalType": "address",
          "name": "owner",
          "type": "address"
        },
        {
          "indexed": true,
          "internalType": "address",
          "name": "approved",
          "type": "address"
        },
        {
          "indexed": true,
          "internalType": "uint256",
          "name": "tokenId",
          "type": "uint256"
        }
      ],
      "name": "Approval",
      "type": "event"
    },
    {
      "anonymous": false,
      "inputs": [
        {
          "indexed": true,
          "internalType": "address",
          "name": "owner",
          "type": "address"
        },
        {
          "indexed": true,
          "internalType": "address",
          "name": "operator",
          "type": "address"
        },
        {
          "indexed": false,
          "internalType": "bool",
          "name": "approved",
          "type": "bool"
        }
      ],
      "name": "ApprovalForAll",
      "type": "event"
    },
    {
      "anonymous": false,
      "inputs": [
        {
          "indexed": true,
          "internalType": "address",
          "name": "previousOwner",
          "type": "address"
        },
        {
          "indexed": true,
          "internalType": "address",
          "name": "newOwner",
          "type": "address"
        }
      ],
      "name": "OwnershipTransferred",
      "type": "event"
    },
    {
      "anonymous": false,
      "inputs": [
        {
          "indexed": true,
          "internalType": "address",
          "name": "from",
          "type": "address"
        },
        {
          "indexed": true,
          "internalType": "address",
          "name": "to",
          "type": "address"
        },
        {
          "indexed": true,
          "internalType": "uint256",
          "name": "tokenId",
          "type": "uint256"
        }
      ],
      "name": "Transfer",
      "type": "event"
    },
    {
      "inputs": [
        {
          "internalType": "address",
          "name": "to",
          "type": "address"
        },
        {
          "internalType": "uint256",
          "name": "tokenId",
          "type": "uint256"
        }
      ],
      "name": "approve",
      "outputs": [],
      "stateMutability": "nonpayable",
      "type": "function"
    },
    {
      "inputs": [
        {
          "internalType": "address",
          "name": "owner",
          "type": "address"
        }
      ],
      "name": "balanceOf",
      "outputs": [
        {
          "internalType": "uint256",
          "name": "",
          "type": "uint256"
        }
      ],
      "stateMutability": "view",
      "type": "function"
    },
    {
      "inputs": [
        {
          "internalType": "uint256",
          "name": "tokenId",
          "type": "uint256"
        }
      ],
      "name": "getApproved",
      "outputs": [
        {
          "internalType": "address",
          "name": "",
          "type": "address"
        }
      ],
      "stateMutability": "view",
      "type": "function"
    },
    {
      "inputs": [],
      "name": "getAuthority",
      "outputs": [
        {
          "internalType": "address",
          "name": "",
          "type": "address"
        }
      ],
      "stateMutability": "view",
      "type": "function"
    },
    {
      "inputs": [
        {
          "internalType": "address",
          "name": "owner",
          "type": "address"
        },
        {
          "internalType": "address",
          "name": "operator",
          "type": "address"
        }
      ],
      "name": "isApprovedForAll",
      "outputs": [
        {
          "internalType": "bool",
          "name": "",
          "type": "bool"
        }
      ],
      "stateMutability": "view",
      "type": "function"
    },
    {
      "inputs": [
        {
          "internalType": "address",
          "name": "collector",
          "type": "address"
        },
        {
          "internalType": "uint256",
          "name": "tokenId",
          "type": "uint256"
        },
        {
          "internalType": "string",
          "name": "_tokenURI",
          "type": "string"
        }
      ],
      "name": "mintNFT",
      "outputs": [],
      "stateMutability": "nonpayable",
      "type": "function"
    },
    {
      "inputs": [],
      "name": "name",
      "outputs": [
        {
          "internalType": "string",
          "name": "",
          "type": "string"
        }
      ],
      "stateMutability": "view",
      "type": "function"
    },
    {
      "inputs": [],
      "name": "owner",
      "outputs": [
        {
          "internalType": "address",
          "name": "",
          "type": "address"
        }
      ],
      "stateMutability": "view",
      "type": "function"
    },
    {
      "inputs": [
        {
          "internalType": "uint256",
          "name": "tokenId",
          "type": "uint256"
        }
      ],
      "name": "ownerOf",
      "outputs": [
        {
          "internalType": "address",
          "name": "",
          "type": "address"
        }
      ],
      "stateMutability": "view",
      "type": "function"
    },
    {
      "inputs": [],
      "name": "renounceOwnership",
      "outputs": [],
      "stateMutability": "nonpayable",
      "type": "function"
    },
    {
      "inputs": [
        {
          "internalType": "address",
          "name": "from",
          "type": "address"
        },
        {
          "internalType": "address",
          "name": "to",
          "type": "address"
        },
        {
          "internalType": "uint256",
          "name": "tokenId",
          "type": "uint256"
        }
      ],
      "name": "safeTransferFrom",
      "outputs": [],
      "stateMutability": "nonpayable",
      "type": "function"
    },
    {
      "inputs": [
        {
          "internalType": "address",
          "name": "from",
          "type": "address"
        },
        {
          "internalType": "address",
          "name": "to",
          "type": "address"
        },
        {
          "internalType": "uint256",
          "name": "tokenId",
          "type": "uint256"
        },
        {
          "internalType": "bytes",
          "name": "data",
          "type": "bytes"
        }
      ],
      "name": "safeTransferFrom",
      "outputs": [],
      "stateMutability": "nonpayable",
      "type": "function"
    },
    {
      "inputs": [
        {
          "internalType": "address",
          "name": "operator",
          "type": "address"
        },
        {
          "internalType": "bool",
          "name": "approved",
          "type": "bool"
        }
      ],
      "name": "setApprovalForAll",
      "outputs": [],
      "stateMutability": "nonpayable",
      "type": "function"
    },
    {
      "inputs": [
        {
          "internalType": "address",
          "name": "_authority",
          "type": "address"
        }
      ],
      "name": "setAuthority",
      "outputs": [],
      "stateMutability": "nonpayable",
      "type": "function"
    },
    {
      "inputs": [
        {
          "internalType": "bytes4",
          "name": "interfaceId",
          "type": "bytes4"
        }
      ],
      "name": "supportsInterface",
      "outputs": [
        {
          "internalType": "bool",
          "name": "",
          "type": "bool"
        }
      ],
      "stateMutability": "view",
      "type": "function"
    },
    {
      "inputs": [],
      "name": "symbol",
      "outputs": [
        {
          "internalType": "string",
          "name": "",
          "type": "string"
        }
      ],
      "stateMutability": "view",
      "type": "function"
    },
    {
      "inputs": [
        {
          "internalType": "uint256",
          "name": "tokenId",
          "type": "uint256"
        }
      ],
      "name": "tokenURI",
      "outputs": [
        {
          "internalType": "string",
          "name": "",
          "type": "string"
        }
      ],
      "stateMutability": "view",
      "type": "function"
    },
    {
      "inputs": [
        {
          "internalType": "address",
          "name": "from",
          "type": "address"
        },
        {
          "internalType": "address",
          "name": "to",
          "type": "address"
        },
        {
          "internalType": "uint256",
          "name": "tokenId",
          "type": "uint256"
        }
      ],
      "name": "transferFrom",
      "outputs": [],
      "stateMutability": "nonpayable",
      "type": "function"
    },
    {
      "inputs": [
        {
          "internalType": "address",
          "name": "newOwner",
          "type": "address"
        }
      ],
      "name": "transferOwnership",
      "outputs": [],
      "stateMutability": "nonpayable",
      "type": "function"
    }
  ],
  "bytecode": "0x60806040523480156200001157600080fd5b506040518060400160405280600b81526020017f4e6f6e46756e546f6b656e0000000000000000000000000000000000000000008152506040518060400160405280600681526020017f4e4f4e46554e000000000000000000000000000000000000000000000000000081525081600090816200008f919062000412565b508060019081620000a1919062000412565b505050620000c4620000b8620000ca60201b60201c565b620000d260201b60201c565b620004f9565b600033905090565b6000600660009054906101000a900473ffffffffffffffffffffffffffffffffffffffff16905081600660006101000a81548173ffffffffffffffffffffffffffffffffffffffff021916908373ffffffffffffffffffffffffffffffffffffffff1602179055508173ffffffffffffffffffffffffffffffffffffffff168173ffffffffffffffffffffffffffffffffffffffff167f8be0079c531659141344cd1fd0a4f28419497f9722a3daafe3b4186f6b6457e060405160405180910390a35050565b600081519050919050565b7f4e487b7100000000000000000000000000000000000000000000000000000000600052604160045260246000fd5b7f4e487b7100000000000000000000000000000000000000000000000000000000600052602260045260246000fd5b600060028204905060018216806200021a57607f821691505b60208210810362000230576200022f620001d2565b5b50919050565b60008190508160005260206000209050919050565b60006020601f8301049050919050565b600082821b905092915050565b6000600883026200029a7fffffffffffffffffffffffffffffffffffffffffffffffffffffffffffffffff826200025b565b620002a686836200025b565b95508019841693508086168417925050509392505050565b6000819050919050565b6000819050919050565b6000620002f3620002ed620002e784620002be565b620002c8565b620002be565b9050919050565b6000819050919050565b6200030f83620002d2565b620003276200031e82620002fa565b84845462000268565b825550505050565b600090565b6200033e6200032f565b6200034b81848462000304565b505050565b5b8181101562000373576200036760008262000334565b60018101905062000351565b5050565b601f821115620003c2576200038c8162000236565b62000397846200024b565b81016020851015620003a7578190505b620003bf620003b6856200024b565b83018262000350565b50505b505050565b600082821c905092915050565b6000620003e760001984600802620003c7565b1980831691505092915050565b6000620004028383620003d4565b9150826002028217905092915050565b6200041d8262000198565b67ffffffffffffffff811115620004395762000438620001a3565b5b62000445825462000201565b6200045282828562000377565b600060209050601f8311600181146200048a576000841562000475578287015190505b620004818582620003f4565b865550620004f1565b601f1984166200049a8662000236565b60005b82811015620004c4578489015182556001820191506020850194506020810190506200049d565b86831015620004e45784890151620004e0601f891682620003d4565b8355505b6001600288020188555050505b505050505050565b612e9380620005096000396000f3fe608060405234801561001057600080fd5b50600436106101215760003560e01c8063715018a6116100ad578063b88d4fde11610071578063b88d4fde146102f2578063c87b56dd1461030e578063e2b178a01461033e578063e985e9c51461035c578063f2fde38b1461038c57610121565b8063715018a6146102745780637a9e5e4b1461027e5780638da5cb5b1461029a57806395d89b41146102b8578063a22cb465146102d657610121565b80631e576912116100f45780631e576912146101c057806323b872dd146101dc57806342842e0e146101f85780636352211e1461021457806370a082311461024457610121565b806301ffc9a71461012657806306fdde0314610156578063081812fc14610174578063095ea7b3146101a4575b600080fd5b610140600480360381019061013b9190611bbd565b6103a8565b60405161014d9190611c05565b60405180910390f35b61015e61048a565b60405161016b9190611cb0565b60405180910390f35b61018e60048036038101906101899190611d08565b61051c565b60405161019b9190611d76565b60405180910390f35b6101be60048036038101906101b99190611dbd565b610562565b005b6101da60048036038101906101d59190611f32565b610679565b005b6101f660048036038101906101f19190611fa1565b610776565b005b610212600480360381019061020d9190611fa1565b6107d6565b005b61022e60048036038101906102299190611d08565b6107f6565b60405161023b9190611d76565b60405180910390f35b61025e60048036038101906102599190611ff4565b61087c565b60405161026b9190612030565b60405180910390f35b61027c610933565b005b61029860048036038101906102939190611ff4565b610947565b005b6102a2610993565b6040516102af9190611d76565b60405180910390f35b6102c06109bd565b6040516102cd9190611cb0565b60405180910390f35b6102f060048036038101906102eb9190612077565b610a4f565b005b61030c60048036038101906103079190612158565b610a65565b005b61032860048036038101906103239190611d08565b610ac7565b6040516103359190611cb0565b60405180910390f35b610346610b15565b6040516103539190611d76565b60405180910390f35b610376600480360381019061037191906121db565b610b3f565b6040516103839190611c05565b60405180910390f35b6103a660048036038101906103a19190611ff4565b610bd3565b005b60007f80ac58cd000000000000000000000000000000000000000000000000000000007bffffffffffffffffffffffffffffffffffffffffffffffffffffffff1916827bffffffffffffffffffffffffffffffffffffffffffffffffffffffff1916148061047357507f5b5e139f000000000000000000000000000000000000000000000000000000007bffffffffffffffffffffffffffffffffffffffffffffffffffffffff1916827bffffffffffffffffffffffffffffffffffffffffffffffffffffffff1916145b80610483575061048282610c56565b5b9050919050565b6060600080546104999061224a565b80601f01602080910402602001604051908101604052809291908181526020018280546104c59061224a565b80156105125780601f106104e757610100808354040283529160200191610512565b820191906000526020600020905b8154815290600101906020018083116104f557829003601f168201915b5050505050905090565b600061052782610cc0565b6004600083815260200190815260200160002060009054906101000a900473ffffffffffffffffffffffffffffffffffffffff169050919050565b600061056d826107f6565b90508073ffffffffffffffffffffffffffffffffffffffff168373ffffffffffffffffffffffffffffffffffffffff16036105dd576040517f08c379a00000000000000000000000000000000000000000000000000000000081526004016105d4906122ed565b60405180910390fd5b8073ffffffffffffffffffffffffffffffffffffffff166105fc610d0b565b73ffffffffffffffffffffffffffffffffffffffff16148061062b575061062a81610625610d0b565b610b3f565b5b61066a576040517f08c379a00000000000000000000000000000000000000000000000000000000081526004016106619061237f565b60405180910390fd5b6106748383610d13565b505050565b3373ffffffffffffffffffffffffffffffffffffffff16600760009054906101000a900473ffffffffffffffffffffffffffffffffffffffff1673ffffffffffffffffffffffffffffffffffffffff16148061070757503373ffffffffffffffffffffffffffffffffffffffff166106ef610993565b73ffffffffffffffffffffffffffffffffffffffff16145b610746576040517f08c379a000000000000000000000000000000000000000000000000000000000815260040161073d906123eb565b60405180910390fd5b6107508383610dcc565b8060086000848152602001908152602001600020908161077091906125b7565b50505050565b610787610781610d0b565b82610dea565b6107c6576040517f08c379a00000000000000000000000000000000000000000000000000000000081526004016107bd906126fb565b60405180910390fd5b6107d1838383610e7f565b505050565b6107f183838360405180602001604052806000815250610a65565b505050565b60008061080283611178565b9050600073ffffffffffffffffffffffffffffffffffffffff168173ffffffffffffffffffffffffffffffffffffffff1603610873576040517f08c379a000000000000000000000000000000000000000000000000000000000815260040161086a90612767565b60405180910390fd5b80915050919050565b60008073ffffffffffffffffffffffffffffffffffffffff168273ffffffffffffffffffffffffffffffffffffffff16036108ec576040517f08c379a00000000000000000000000000000000000000000000000000000000081526004016108e3906127f9565b60405180910390fd5b600360008373ffffffffffffffffffffffffffffffffffffffff1673ffffffffffffffffffffffffffffffffffffffff168152602001908152602001600020549050919050565b61093b6111b5565b6109456000611233565b565b61094f6111b5565b80600760006101000a81548173ffffffffffffffffffffffffffffffffffffffff021916908373ffffffffffffffffffffffffffffffffffffffff16021790555050565b6000600660009054906101000a900473ffffffffffffffffffffffffffffffffffffffff16905090565b6060600180546109cc9061224a565b80601f01602080910402602001604051908101604052809291908181526020018280546109f89061224a565b8015610a455780601f10610a1a57610100808354040283529160200191610a45565b820191906000526020600020905b815481529060010190602001808311610a2857829003601f168201915b5050505050905090565b610a61610a5a610d0b565b83836112f9565b5050565b610a76610a70610d0b565b83610dea565b610ab5576040517f08c379a0000000000000000000000000000000000000000000000000000000008152600401610aac906126fb565b60405180910390fd5b610ac184848484611465565b50505050565b6060610ad282610cc0565b60086000838152602001908152602001600020610aee836114c1565b604051602001610aff929190612924565b6040516020818303038152906040529050919050565b6000600760009054906101000a900473ffffffffffffffffffffffffffffffffffffffff16905090565b6000600560008473ffffffffffffffffffffffffffffffffffffffff1673ffffffffffffffffffffffffffffffffffffffff16815260200190815260200160002060008373ffffffffffffffffffffffffffffffffffffffff1673ffffffffffffffffffffffffffffffffffffffff16815260200190815260200160002060009054906101000a900460ff16905092915050565b610bdb6111b5565b600073ffffffffffffffffffffffffffffffffffffffff168173ffffffffffffffffffffffffffffffffffffffff1603610c4a576040517f08c379a0000000000000000000000000000000000000000000000000000000008152600401610c41906129c5565b60405180910390fd5b610c5381611233565b50565b60007f01ffc9a7000000000000000000000000000000000000000000000000000000007bffffffffffffffffffffffffffffffffffffffffffffffffffffffff1916827bffffffffffffffffffffffffffffffffffffffffffffffffffffffff1916149050919050565b610cc98161158f565b610d08576040517f08c379a0000000000000000000000000000000000000000000000000000000008152600401610cff90612767565b60405180910390fd5b50565b600033905090565b816004600083815260200190815260200160002060006101000a81548173ffffffffffffffffffffffffffffffffffffffff021916908373ffffffffffffffffffffffffffffffffffffffff160217905550808273ffffffffffffffffffffffffffffffffffffffff16610d86836107f6565b73ffffffffffffffffffffffffffffffffffffffff167f8c5be1e5ebec7d5bd14f71427d1e84f3dd0314c0f7b2291e5b200ac8c7c3b92560405160405180910390a45050565b610de68282604051806020016040528060008152506115d0565b5050565b600080610df6836107f6565b90508073ffffffffffffffffffffffffffffffffffffffff168473ffffffffffffffffffffffffffffffffffffffff161480610e385750610e378185610b3f565b5b80610e7657508373ffffffffffffffffffffffffffffffffffffffff16610e5e8461051c565b73ffffffffffffffffffffffffffffffffffffffff16145b91505092915050565b8273ffffffffffffffffffffffffffffffffffffffff16610e9f826107f6565b73ffffffffffffffffffffffffffffffffffffffff1614610ef5576040517f08c379a0000000000000000000000000000000000000000000000000000000008152600401610eec90612a57565b60405180910390fd5b600073ffffffffffffffffffffffffffffffffffffffff168273ffffffffffffffffffffffffffffffffffffffff1603610f64576040517f08c379a0000000000000000000000000000000000000000000000000000000008152600401610f5b90612ae9565b60405180910390fd5b610f71838383600161162b565b8273ffffffffffffffffffffffffffffffffffffffff16610f91826107f6565b73ffffffffffffffffffffffffffffffffffffffff1614610fe7576040517f08c379a0000000000000000000000000000000000000000000000000000000008152600401610fde90612a57565b60405180910390fd5b6004600082815260200190815260200160002060006101000a81549073ffffffffffffffffffffffffffffffffffffffff02191690556001600360008573ffffffffffffffffffffffffffffffffffffffff1673ffffffffffffffffffffffffffffffffffffffff168152602001908152602001600020600082825403925050819055506001600360008473ffffffffffffffffffffffffffffffffffffffff1673ffffffffffffffffffffffffffffffffffffffff16815260200190815260200160002060008282540192505081905550816002600083815260200190815260200160002060006101000a81548173ffffffffffffffffffffffffffffffffffffffff021916908373ffffffffffffffffffffffffffffffffffffffff160217905550808273ffffffffffffffffffffffffffffffffffffffff168473ffffffffffffffffffffffffffffffffffffffff167fddf252ad1be2c89b69c2b068fc378daa952ba7f163c4a11628f55a4df523b3ef60405160405180910390a46111738383836001611631565b505050565b60006002600083815260200190815260200160002060009054906101000a900473ffffffffffffffffffffffffffffffffffffffff169050919050565b6111bd610d0b565b73ffffffffffffffffffffffffffffffffffffffff166111db610993565b73ffffffffffffffffffffffffffffffffffffffff1614611231576040517f08c379a000000000000000000000000000000000000000000000000000000000815260040161122890612b55565b60405180910390fd5b565b6000600660009054906101000a900473ffffffffffffffffffffffffffffffffffffffff16905081600660006101000a81548173ffffffffffffffffffffffffffffffffffffffff021916908373ffffffffffffffffffffffffffffffffffffffff1602179055508173ffffffffffffffffffffffffffffffffffffffff168173ffffffffffffffffffffffffffffffffffffffff167f8be0079c531659141344cd1fd0a4f28419497f9722a3daafe3b4186f6b6457e060405160405180910390a35050565b8173ffffffffffffffffffffffffffffffffffffffff168373ffffffffffffffffffffffffffffffffffffffff1603611367576040517f08c379a000000000000000000000000000000000000000000000000000000000815260040161135e90612bc1565b60405180910390fd5b80600560008573ffffffffffffffffffffffffffffffffffffffff1673ffffffffffffffffffffffffffffffffffffffff16815260200190815260200160002060008473ffffffffffffffffffffffffffffffffffffffff1673ffffffffffffffffffffffffffffffffffffffff16815260200190815260200160002060006101000a81548160ff0219169083151502179055508173ffffffffffffffffffffffffffffffffffffffff168373ffffffffffffffffffffffffffffffffffffffff167f17307eab39ab6107e8899845ad3d59bd9653f200f220920489ca2b5937696c31836040516114589190611c05565b60405180910390a3505050565b611470848484610e7f565b61147c84848484611637565b6114bb576040517f08c379a00000000000000000000000000000000000000000000000000000000081526004016114b290612c53565b60405180910390fd5b50505050565b6060600060016114d0846117be565b01905060008167ffffffffffffffff8111156114ef576114ee611e07565b5b6040519080825280601f01601f1916602001820160405280156115215781602001600182028036833780820191505090505b509050600082602001820190505b600115611584578080600190039150507f3031323334353637383961626364656600000000000000000000000000000000600a86061a8153600a858161157857611577612c73565b5b0494506000850361152f575b819350505050919050565b60008073ffffffffffffffffffffffffffffffffffffffff166115b183611178565b73ffffffffffffffffffffffffffffffffffffffff1614159050919050565b6115da8383611911565b6115e76000848484611637565b611626576040517f08c379a000000000000000000000000000000000000000000000000000000000815260040161161d90612c53565b60405180910390fd5b505050565b50505050565b50505050565b60006116588473ffffffffffffffffffffffffffffffffffffffff16611b2e565b156117b1578373ffffffffffffffffffffffffffffffffffffffff1663150b7a02611681610d0b565b8786866040518563ffffffff1660e01b81526004016116a39493929190612cf7565b6020604051808303816000875af19250505080156116df57506040513d601f19601f820116820180604052508101906116dc9190612d58565b60015b611761573d806000811461170f576040519150601f19603f3d011682016040523d82523d6000602084013e611714565b606091505b506000815103611759576040517f08c379a000000000000000000000000000000000000000000000000000000000815260040161175090612c53565b60405180910390fd5b805181602001fd5b63150b7a0260e01b7bffffffffffffffffffffffffffffffffffffffffffffffffffffffff1916817bffffffffffffffffffffffffffffffffffffffffffffffffffffffff1916149150506117b6565b600190505b949350505050565b600080600090507a184f03e93ff9f4daa797ed6e38ed64bf6a1f010000000000000000831061181c577a184f03e93ff9f4daa797ed6e38ed64bf6a1f010000000000000000838161181257611811612c73565b5b0492506040810190505b6d04ee2d6d415b85acef81000000008310611859576d04ee2d6d415b85acef8100000000838161184f5761184e612c73565b5b0492506020810190505b662386f26fc10000831061188857662386f26fc10000838161187e5761187d612c73565b5b0492506010810190505b6305f5e10083106118b1576305f5e10083816118a7576118a6612c73565b5b0492506008810190505b61271083106118d65761271083816118cc576118cb612c73565b5b0492506004810190505b606483106118f957606483816118ef576118ee612c73565b5b0492506002810190505b600a8310611908576001810190505b80915050919050565b600073ffffffffffffffffffffffffffffffffffffffff168273ffffffffffffffffffffffffffffffffffffffff1603611980576040517f08c379a000000000000000000000000000000000000000000000000000000000815260040161197790612dd1565b60405180910390fd5b6119898161158f565b156119c9576040517f08c379a00000000000000000000000000000000000000000000000000000000081526004016119c090612e3d565b60405180910390fd5b6119d760008383600161162b565b6119e08161158f565b15611a20576040517f08c379a0000000000000000000000000000000000000000000000000000000008152600401611a1790612e3d565b60405180910390fd5b6001600360008473ffffffffffffffffffffffffffffffffffffffff1673ffffffffffffffffffffffffffffffffffffffff16815260200190815260200160002060008282540192505081905550816002600083815260200190815260200160002060006101000a81548173ffffffffffffffffffffffffffffffffffffffff021916908373ffffffffffffffffffffffffffffffffffffffff160217905550808273ffffffffffffffffffffffffffffffffffffffff16600073ffffffffffffffffffffffffffffffffffffffff167fddf252ad1be2c89b69c2b068fc378daa952ba7f163c4a11628f55a4df523b3ef60405160405180910390a4611b2a600083836001611631565b5050565b6000808273ffffffffffffffffffffffffffffffffffffffff163b119050919050565b6000604051905090565b600080fd5b600080fd5b60007fffffffff0000000000000000000000000000000000000000000000000000000082169050919050565b611b9a81611b65565b8114611ba557600080fd5b50565b600081359050611bb781611b91565b92915050565b600060208284031215611bd357611bd2611b5b565b5b6000611be184828501611ba8565b91505092915050565b60008115159050919050565b611bff81611bea565b82525050565b6000602082019050611c1a6000830184611bf6565b92915050565b600081519050919050565b600082825260208201905092915050565b60005b83811015611c5a578082015181840152602081019050611c3f565b60008484015250505050565b6000601f19601f8301169050919050565b6000611c8282611c20565b611c8c8185611c2b565b9350611c9c818560208601611c3c565b611ca581611c66565b840191505092915050565b60006020820190508181036000830152611cca8184611c77565b905092915050565b6000819050919050565b611ce581611cd2565b8114611cf057600080fd5b50565b600081359050611d0281611cdc565b92915050565b600060208284031215611d1e57611d1d611b5b565b5b6000611d2c84828501611cf3565b91505092915050565b600073ffffffffffffffffffffffffffffffffffffffff82169050919050565b6000611d6082611d35565b9050919050565b611d7081611d55565b82525050565b6000602082019050611d8b6000830184611d67565b92915050565b611d9a81611d55565b8114611da557600080fd5b50565b600081359050611db781611d91565b92915050565b60008060408385031215611dd457611dd3611b5b565b5b6000611de285828601611da8565b9250506020611df385828601611cf3565b9150509250929050565b600080fd5b600080fd5b7f4e487b7100000000000000000000000000000000000000000000000000000000600052604160045260246000fd5b611e3f82611c66565b810181811067ffffffffffffffff82111715611e5e57611e5d611e07565b5b80604052505050565b6000611e71611b51565b9050611e7d8282611e36565b919050565b600067ffffffffffffffff821115611e9d57611e9c611e07565b5b611ea682611c66565b9050602081019050919050565b82818337600083830152505050565b6000611ed5611ed084611e82565b611e67565b905082815260208101848484011115611ef157611ef0611e02565b5b611efc848285611eb3565b509392505050565b600082601f830112611f1957611f18611dfd565b5b8135611f29848260208601611ec2565b91505092915050565b600080600060608486031215611f4b57611f4a611b5b565b5b6000611f5986828701611da8565b9350506020611f6a86828701611cf3565b925050604084013567ffffffffffffffff811115611f8b57611f8a611b60565b5b611f9786828701611f04565b9150509250925092565b600080600060608486031215611fba57611fb9611b5b565b5b6000611fc886828701611da8565b9350506020611fd986828701611da8565b9250506040611fea86828701611cf3565b9150509250925092565b60006020828403121561200a57612009611b5b565b5b600061201884828501611da8565b91505092915050565b61202a81611cd2565b82525050565b60006020820190506120456000830184612021565b92915050565b61205481611bea565b811461205f57600080fd5b50565b6000813590506120718161204b565b92915050565b6000806040838503121561208e5761208d611b5b565b5b600061209c85828601611da8565b92505060206120ad85828601612062565b9150509250929050565b600067ffffffffffffffff8211156120d2576120d1611e07565b5b6120db82611c66565b9050602081019050919050565b60006120fb6120f6846120b7565b611e67565b90508281526020810184848401111561211757612116611e02565b5b612122848285611eb3565b509392505050565b600082601f83011261213f5761213e611dfd565b5b813561214f8482602086016120e8565b91505092915050565b6000806000806080858703121561217257612171611b5b565b5b600061218087828801611da8565b945050602061219187828801611da8565b93505060406121a287828801611cf3565b925050606085013567ffffffffffffffff8111156121c3576121c2611b60565b5b6121cf8782880161212a565b91505092959194509250565b600080604083850312156121f2576121f1611b5b565b5b600061220085828601611da8565b925050602061221185828601611da8565b9150509250929050565b7f4e487b7100000000000000000000000000000000000000000000000000000000600052602260045260246000fd5b6000600282049050600182168061226257607f821691505b6020821081036122755761227461221b565b5b50919050565b7f4552433732313a20617070726f76616c20746f2063757272656e74206f776e6560008201527f7200000000000000000000000000000000000000000000000000000000000000602082015250565b60006122d7602183611c2b565b91506122e28261227b565b604082019050919050565b60006020820190508181036000830152612306816122ca565b9050919050565b7f4552433732313a20617070726f76652063616c6c6572206973206e6f7420746f60008201527f6b656e206f776e6572206f7220617070726f76656420666f7220616c6c000000602082015250565b6000612369603d83611c2b565b91506123748261230d565b604082019050919050565b600060208201905081810360008301526123988161235c565b9050919050565b7f4f6e6c792074686520617574686f726974792063616e206d696e74204e465473600082015250565b60006123d5602083611c2b565b91506123e08261239f565b602082019050919050565b60006020820190508181036000830152612404816123c8565b9050919050565b60008190508160005260206000209050919050565b60006020601f8301049050919050565b600082821b905092915050565b60006008830261246d7fffffffffffffffffffffffffffffffffffffffffffffffffffffffffffffffff82612430565b6124778683612430565b95508019841693508086168417925050509392505050565b6000819050919050565b60006124b46124af6124aa84611cd2565b61248f565b611cd2565b9050919050565b6000819050919050565b6124ce83612499565b6124e26124da826124bb565b84845461243d565b825550505050565b600090565b6124f76124ea565b6125028184846124c5565b505050565b5b818110156125265761251b6000826124ef565b600181019050612508565b5050565b601f82111561256b5761253c8161240b565b61254584612420565b81016020851015612554578190505b61256861256085612420565b830182612507565b50505b505050565b600082821c905092915050565b600061258e60001984600802612570565b1980831691505092915050565b60006125a7838361257d565b9150826002028217905092915050565b6125c082611c20565b67ffffffffffffffff8111156125d9576125d8611e07565b5b6125e3825461224a565b6125ee82828561252a565b600060209050601f831160018114612621576000841561260f578287015190505b612619858261259b565b865550612681565b601f19841661262f8661240b565b60005b8281101561265757848901518255600182019150602085019450602081019050612632565b868310156126745784890151612670601f89168261257d565b8355505b6001600288020188555050505b505050505050565b7f4552433732313a2063616c6c6572206973206e6f7420746f6b656e206f776e6560008201527f72206f7220617070726f76656400000000000000000000000000000000000000602082015250565b60006126e5602d83611c2b565b91506126f082612689565b604082019050919050565b60006020820190508181036000830152612714816126d8565b9050919050565b7f4552433732313a20696e76616c696420746f6b656e2049440000000000000000600082015250565b6000612751601883611c2b565b915061275c8261271b565b602082019050919050565b6000602082019050818103600083015261278081612744565b9050919050565b7f4552433732313a2061646472657373207a65726f206973206e6f74206120766160008201527f6c6964206f776e65720000000000000000000000000000000000000000000000602082015250565b60006127e3602983611c2b565b91506127ee82612787565b604082019050919050565b60006020820190508181036000830152612812816127d6565b9050919050565b600081905092915050565b600081546128318161224a565b61283b8186612819565b94506001821660008114612856576001811461286b5761289e565b60ff198316865281151582028601935061289e565b6128748561240b565b60005b8381101561289657815481890152600182019150602081019050612877565b838801955050505b50505092915050565b60006128b282611c20565b6128bc8185612819565b93506128cc818560208601611c3c565b80840191505092915050565b7f2e6a736f6e000000000000000000000000000000000000000000000000000000600082015250565b600061290e600583612819565b9150612919826128d8565b600582019050919050565b60006129308285612824565b915061293c82846128a7565b915061294782612901565b91508190509392505050565b7f4f776e61626c653a206e6577206f776e657220697320746865207a65726f206160008201527f6464726573730000000000000000000000000000000000000000000000000000602082015250565b60006129af602683611c2b565b91506129ba82612953565b604082019050919050565b600060208201905081810360008301526129de816129a2565b9050919050565b7f4552433732313a207472616e736665722066726f6d20696e636f72726563742060008201527f6f776e6572000000000000000000000000000000000000000000000000000000602082015250565b6000612a41602583611c2b565b9150612a4c826129e5565b604082019050919050565b60006020820190508181036000830152612a7081612a34565b9050919050565b7f4552433732313a207472616e7366657220746f20746865207a65726f2061646460008201527f7265737300000000000000000000000000000000000000000000000000000000602082015250565b6000612ad3602483611c2b565b9150612ade82612a77565b604082019050919050565b60006020820190508181036000830152612b0281612ac6565b9050919050565b7f4f776e61626c653a2063616c6c6572206973206e6f7420746865206f776e6572600082015250565b6000612b3f602083611c2b565b9150612b4a82612b09565b602082019050919050565b60006020820190508181036000830152612b6e81612b32565b9050919050565b7f4552433732313a20617070726f766520746f2063616c6c657200000000000000600082015250565b6000612bab601983611c2b565b9150612bb682612b75565b602082019050919050565b60006020820190508181036000830152612bda81612b9e565b9050919050565b7f4552433732313a207472616e7366657220746f206e6f6e20455243373231526560008201527f63656976657220696d706c656d656e7465720000000000000000000000000000602082015250565b6000612c3d603283611c2b565b9150612c4882612be1565b604082019050919050565b60006020820190508181036000830152612c6c81612c30565b9050919050565b7f4e487b7100000000000000000000000000000000000000000000000000000000600052601260045260246000fd5b600081519050919050565b600082825260208201905092915050565b6000612cc982612ca2565b612cd38185612cad565b9350612ce3818560208601611c3c565b612cec81611c66565b840191505092915050565b6000608082019050612d0c6000830187611d67565b612d196020830186611d67565b612d266040830185612021565b8181036060830152612d388184612cbe565b905095945050505050565b600081519050612d5281611b91565b92915050565b600060208284031215612d6e57612d6d611b5b565b5b6000612d7c84828501612d43565b91505092915050565b7f4552433732313a206d696e7420746f20746865207a65726f2061646472657373600082015250565b6000612dbb602083611c2b565b9150612dc682612d85565b602082019050919050565b60006020820190508181036000830152612dea81612dae565b9050919050565b7f4552433732313a20746f6b656e20616c7265616479206d696e74656400000000600082015250565b6000612e27601c83611c2b565b9150612e3282612df1565b602082019050919050565b60006020820190508181036000830152612e5681612e1a565b905091905056fea2646970667358221220a340e03e65c3f0b5ada250effa01a03a010041601526e38d113a1d32be8470c264736f6c63430008110033",
  "linkReferences": {},
  "deployedLinkReferences": {}
}